:020000040000FA
:100000003C2883161C141A0883169B0A3728030100
:1000100083169A001C1555309D00AA309D009C1433
:100020009C1810281C119B0A3728A301A200FF303E
:10003000A207031CA307031C37280330A100DF30ED
:1000400023201728A101E83EA000A109FC30031CD1
:100050002C28A00703182928A0076400A10F29282D
:1000600020183228A01C36280000362808008313E8
:1000700003138312640008000730990083163030A0
:10008000850083128501B8011730A3007030162057
:1000900064003808003C031D4E2887206400851E3C
:1000A000522857206400051E56286C204828051445
:1000B0008316051083120130A300F43016200510BA
:1000C000831605109B0101308312082083169B01C3
:1000D00083120120B900080064003908003C031DA8
:1000E0007228080005158316051183120130A3003C
:1000F000F43016200511831605119B010030831280
:10010000082083169B0183120120B9000800831682
:100110009B0183120120B9000130B8000800630080
:020120008F2826
:02400E00FC3F75
:00000001FF
